:106000000031002031610000296100002961000099
:106010000000000000000000000000000000000080
:1060200000000000000000000000000029610000E6
:10603000000000000000000029610000296100004C
:106040002961000029610000C59C00002961000051
:10605000296100002961000045BC000029610000A1
:10606000296100002961000029610000D9A6000013
:10607000EDA60000296100002961000029610000EF
:10608000296100003DAB000029610000296100008A
:1060900029610000296100007D990000296100004C
:1060A00029610000296100002961000029610000C8
:1060B0000000000010B5064C2378002B07D1054BDB
:1060C000002B02D0044800E000BF0123237010BD64
:1060D000400200200000000050EE0000084B10B508
:1060E000002B03D00749084800E000BF07480368B9
:1060F000002B00D110BD064B002BFBD09847F9E7D1
:10610000000000004402002050EE000050EE0000AD
:106110000000000010B5024B9847024B984710BD95
:106120004167000095850000EFF30583FCE7000060
:1061300010B51A4A1A4B9A4211D01A00194B9A42BA
:106140000DD2194A03339B1A9B0801339B0000228E
:10615000134812498C58845004329A42FAD1134A97
:10616000134B9A420AD2D34311495B1803218B4344
:1061700004339B18002102C29342FCD10D4AFF2137
:106180000D4B8B4393600D4A53687F390B4353602B
:106190000B4B98470B4B9847FEE7C04650EE00006C
:1061A00000000020400200200400002040020020E7
:1061B0000011002000ED00E0006000000040004100
:1061C000DDDA000039C00000F0B5CE46474680B5A4
:1061D00085B0334C236A08273B4323624421F823CC
:1061E000304AD150304B9946002302932F4B0193F4
:1061F0000125009500234A462D492E482E4EB047D2
:106200004A460432102300212A482C4EB047C023AE
:10621000DB0598465F602A4B2A4A9A62C02109062C
:10622000996243201A5CAA430126B446664632436B
:10623000D2B21A5412381A5C07373A401026324349
:10624000D2B21A548022D200404642609C629962C7
:106250004A201A5CAA4364462243D2B21A54352417
:10626000185D0F22904362461043C0B21855802239
:10627000120140464260144A9A6299624B22995C2C
:10628000A94360460143C9B299541A5D3A4032436A
:10629000D2B21A5505B00CBC90469946F0BDC04626
:1062A00000040040001800405C0200201C08002090
:1062B000000C0043D807002035860000DD86000072
:1062C000002800400800004000080040034A5169CF
:1062D00080235B000B4353617047C04600040040BD
:1062E00010B5034B984703490348044B984710BD2A
:1062F000CD62000000200040A0070020AD87000014
:10630000F0B5C64600B5C024E40510236360234BF6
:10631000234A9A62234A9A6244215A5C04208243A7
:106320005A545A5C0126B24301252A43D2B25A5428
:1063300012395A5C0B308446824303273A43D2B267
:106340005A5440226261A260174A9A62C022120621
:1063500090469A621431585CB0432843C0B25854F6
:106360003320195C624691433943C9B219548021E4
:106370006161A1600D49996242469A6247215A5C67
:10638000B2432A43D2B25A541A5C38390A402131F6
:106390000A431A5404BC9046F0BDC0460028004091
:1063A00010000240000002C0400000408000004099
:1063B000064B4021C82299500331043A9950044AAF
:1063C000D36942390B43D3617047C046001800407F
:1063D0000004004010B5054B98478421C9050448C6
:1063E000044B9847044B984710BDC046B16300006A
:1063F00004080020458900000163000070B5124BBD
:106400004820195C042291431954195C0125A943C1
:1064100001242143C9B219541438195C0F26B14321
:106420000C3E3143195449215E5C96435E545A5CDC
:10643000AA432243D2B25A541A5C3A390A40213153
:106440000A431A5470BDC04600280040064B402144
:10645000D022995003310C3A9950044AD3693F39FC
:106460000B43D3617047C046001800400004004051
:1064700010B5044B984704490448054B9847054B11
:10648000984710BD4D64000000080042300700200E
:1064900075880000FD630000064B4021D42299500E
:1064A0000331103A9950044AD3693B390B43D36105
:1064B0007047C046001800400004004030B50E4B45
:1064C0005622995C0125A94301242143C9B299545C
:1064D0003B20195C473A91430D3A11431954572117
:1064E0005A5CAA432243D2B25A541A5C48390A4031
:1064F00011310A431A5430BD0028004010B582B053
:10650000074B9847002300931033064A143206497C
:106510000648074CA047074B984702B010BDC0463D
:10652000996400005C020020000C00425408002026
:10653000458E0000BD640000064B4021D8229950D2
:106540000231143A9950044AD36932390B43D3616A
:106550007047C046001800400004004030B50E4BA4
:10656000C822995C0125A94301242143C9B2995449
:10657000B420195CB93A91430C3A11431954C9211A
:106580005A5CAA432243D2B25A541A5CBA390A401E
:1065900021310A431A5430BD0028004010B582B0A2
:1065A000074B9847002300931033064A24320649CC
:1065B0000648074CA047074B984702B010BDC0469D
:1065C000396500005C0200200010004250070020E6
:1065D000458E00005D65000070B5124BDE20195C31
:1065E000042291431954195C0125A9430124214334
:1065F000C9B219541F38195C0F26B1430C3E314300
:106600001954DF215E5C96435E545A5CAA432243D0
:10661000D2B25A541A5CD0390A4021310A431A5472
:1066200070BDC04600280040064B4021E022995032
:106630000431043A9950044A136A42390B431362F5
:106640007047C046001800400004004010B5044BDD
:10665000984704490448054B9847054B984710BD97
:1066600029660000000400433408002075880000FB
:10667000D9650000F0B5C64600B5C024E405802207
:106680005204A2601A4B8027FF059F621949996244
:1066900062615820195C0422904691431954195C98
:1066A0000126B14301252943C9B219541C38195C8C
:1066B0000B329143093A1143195480218904A16096
:1066C0009F620D4F9F62616159215C5C4246944319
:1066D0005C545A5CB2432A43D2B25A541A5C4A39C7
:1066E0000A4051310A431A5404BC9046F0BDC046DA
:1066F00000280040000100C0000200C0412190239A
:10670000064AD150064B1969802252010A431A6188
:106710009A6901210A439A617047C04600180040F7
:106720000004004010B5034B9847034B9847034BB8
:10673000984710BDFD660000499200007566000094
:10674000F0B5D6464F464646C0B5494B9847C0229D
:10675000D205202393619360464B47499962C02438
:1067600024069C624525595D0120814359558021AD
:10677000490191619160414999629C620735595D77
:106780008143595580210905916191608021C90596
:1067900099623B4999620F35595D8143595598215A
:1067A0008C469439894661464D465550882749465E
:1067B000D551A431334D5D505C50C225A8465D5D76
:1067C000854346469D554025AA4666469551D55176
:1067D0002D4E5E505C50C626B0469E5D8643B44644
:1067E000464665469D558025ED01AC469425664696
:1067F0005651D651254F5F505C50CE27DC5D844307
:10680000DC5580273F0484241751214A5A50214ADD
:106810005A50D722995C4C46A1439954995C8143C4
:1068200099541D4B98471D4B98471D4B98471D4B3E
:1068300098471D4B98471D4B98471D4B98471D4A3D
:10684000D16980235B000B43D361EC231A4A514684
:10685000D1501A4B9847020019491A481A4B9847C9
:106860001A4B98471CBC90469946A246F0BDC046BC
:10687000019A000000280040200000400010004065
:10688000000800C0040000404000004000400040FC
:1068900000000240800002C0C9610000E162000007
:1068A000D563000071640000FD6400009D65000078
:1068B0004D6600000004004000180040FBAA0000E4
:1068C00000200042BC070020558B00002567000017
:1068D00010B582B08022120123210848084B984746
:1068E00001AC084B186802222100074B9847237817
:1068F0001B026078184302B010BDC0463408002067
:10690000C1880000A40800201189000010B582B0E1
:106910006B46DC1DD8718022120123210548064BED
:106920009847064B186801222100054B984702B092
:1069300010BDC04634080020C1880000A408002013
:10694000DD88000010B5044C20700A20034B9847E6
:106950002078034B984710BD000000203D840000C4
:106960000D69000010B582B00E4B98470E4C01A97E
:1069700020000E4B984720000D4B984780221201B3
:10698000232120000B4B984701200B4B98470B4BC2
:1069900018780B4B9847FA2080000A4B984702B0B2
:1069A00010BDC0464D66000034080020D3880000AA
:1069B000B5880000C18800000D69000000000020BB
:1069C000456900003D84000000280AD04368002B80
:1069D0000AD08368002B0AD0C3685842584140420D
:1069E000704701204042FBE701204042F8E70120C8
:1069F0004042F5E730B5C1B0002B0BD06846CD184A
:106A0000EDB20170147844700131C9B20230013224
:106A1000A942F6D15B009AB2034B18686946034B52
:106A20009847002041B030BDA4080020DD88000058
:106A300070B582B015001E006B46D9710733074C44
:106A4000012219002068064B98472068320029006F
:106A5000044B9847002002B070BDC046A408002037
:106A6000DD88000011890000F8B507000E00150050
:106A70001C0018000E4B9847002812D1002E13D08E
:106A8000A378002B01D180331F43ABB260786468D8
:106A900032003900A047002800D1F8BD0420404250
:106AA000FBE701204042F8E701204042F5E7C046FD
:106AB000C9690000F0B583B005000E001F00141C6A
:106AC000042A00D90424E4B23800234B9847002854
:106AD00035D1002D36D0002E37D0002C38D0337869
:106AE0006A461370BB78002B0BD12A00631EDBB201
:106AF0000133EB187F3011780140117001329A4256
:106B0000F9D1012C16D969460122AB5C4B70B35CFC
:106B10008B7002310132D3B29C42F6D86400013C42
:106B2000A3B229787878BC686A46A047002803D1C8
:106B300003B0F0BDA3B2F4E704204042F8E701201F
:106B40004042F5E701204042F2E701204042EFE7F2
:106B500003204042ECE7C046C969000030B583B06D
:106B60000500E0226B46DA712A3A6B469A710A4BAD
:106B70009847041E02D0200003B030BD2B00012234
:106B80006946063168460730044CA0470400EB68AC
:106B900002209847EFE7C046C9690000B56A0000C7
:106BA000F0B583B006000F00150001AB00221A708B
:106BB0005A702F4B1B886A46138028002D4B98472C
:106BC00000284FD1002F50D02B00022201A9F43011
:106BD000294CA047041E02D0200003B0F0BD2800BD
:106BE000264B9847041EF7D101A90A781F231A40A3
:106BF0003878400102431C20844682437878800024
:106C00001C34204002430A704A781340BA7852017B
:106C1000134362469343FA789200144023430122BF
:106C200093433879024013434B702B00022268468D
:106C3000134CA047041ECFD128002C300522390068
:106C4000104B9847002EC7D001A90B78032293431D
:106C500016401E430E702B00023A6846084CA047AF
:106C60000400B9E701246442B6E701246442B3E7B3
:106C700030E50000C9690000696A00005D6B000032
:106C8000B56A000025DB000070B582B004000E007C
:106C900001AB00221A705A700800174B9847002861
:106CA00023D1002C24D03300022201A9F430134D4B
:106CB000A847051E16D101A90B785A0922709B100E
:106CC00007221340637049784B09A3708B101A4058
:106CD000E27001230B40237130002C30052221008B
:106CE000074B9847280002B070BD01256D42F9E7B7
:106CF00001256D42F6E7C046C9690000696A0000D7
:106D000025DB000010B50A0001000020014B984768
:106D100010BDC046A16B000070B505000C00080056
:106D2000054B9847002800D070BD21002C3122006F
:106D30002800024B9847F7E7C9690000A16B0000E3
:106D400030B583B004000D00062200216846234BB5
:106D500098472800224B9847002830D1002C31D08A
:106D60002B0006226946F7301E4DA84700282CD17B
:106D70006B461B781B036A465278120113436A461E
:106D800092781209134363606A46D2781203694607
:106D9000097909010A436946497909090A432260C8
:106DA000013A11498A4204D9013B8B4210D80A3872
:106DB00003E0013B0C4A93420DD803B030BD0120E3
:106DC0004042FAE701204042F7E70D204042F4E755
:106DD0000C204042F1E70B204042EEE75BDB000075
:106DE000C9690000696A0000EEFF0F00F0B589B0C4
:106DF000614C624BE36076236370753BA370604B1C
:106E00006360604BA360604B9847604D07A9280002
:106E10005F4B984728005F4B9847802212017621EC
:106E200028005D4B984720005C4B9847051E00D01A
:106E300080E00524504D5A4F2E0058E018220021C2
:106E400001A8584B98474C48544B9847051E5ED1B3
:106E5000494B182201A98820514DA847051E56D13B
:106E6000454A01AB58780002197801431182D8785D
:106E7000000299780143518258790002197901433F
:106E80009182D879000299790143D182587A00021F
:106E9000197A01431183D87A0002997A0143518308
:106EA000587B0002197B01439183D87B0002997BB8
:106EB0000143D183587C0002197C01431184D87CA2
:106EC0000002997C01435184587D0002197D0143E1
:106ED0009184D97D09029B7D0B43D38417E0264B17
:106EE000DB680A209847013CE4B2002C20D02B003C
:106EF00001222900D020B8470028F0D13378563B32
:106F0000022BECD81C48284B9847051E96D0002C25
:106F10002FD0002D0ED1184B00222F215A540239A8
:106F20005A5401395A5402315A5402315A5401E028
:106F300002256D42104E1D4C310020001C4B98471D
:106F40000123E3700233237063700233A3703100B6
:106F50002000184B984731000320174B9847310009
:106F60001648174B9847F36864209847280009B0E3
:106F7000F0BD02256D42DDE7B00800203D84000031
:106F8000316A0000F56900004D66000034080020F9
:106F9000D3880000B5880000C1880000C9690000DE
:106FA000696A00005BDB00005D6B0000A808002040
:106FB000896C0000056D0000196D0000E4080020D8
:106FC000416D0000F8B505000E00140010001C4BC8
:106FD000984700282FD1238AF7170F223A40921999
:106FE0001211D21A072139408919C9105B00CB1A36
:106FF0001226A15F5943CB175B055B0D5B18DB12B3
:1070000052431100D2171205120D521812131426F2
:10701000A15F5143CA179204920C521892139B1805
:10702000A3629A00D2188032D117FF230B409B181D
:107030001B122B60F8BD00232B600E204042F9E7A5
:10704000C9690000F0B5CE46474680B583B005005B
:107050000191160010004E4B9847041E00D086E0A8
:10706000B26AD30F9B185B104A4A94466344DA17FE
:10707000032080460240D21890104043C1174A05B1
:10708000520D1218D21291462022B75E4A4657433B
:10709000BC461E27F25F5A43520062449146D717FE
:1070A00042461740BC464A466244921094461A270C
:1070B000F25F9046CA04D20C121852134046424363
:1070C000D017072101408918C9101820325E534398
:1070D000DA0FD21852108A18D1178903890B891830
:1070E00089148022120290464144F28A4A43D11701
:1070F0004904490C8918C9131C22B05E000460447D
:107100000300C0170005000DC01800134042019B8A
:10711000C01A214F7843214B9C46604428600029C7
:1071200030D0002829DB40001D4B984728602A6892
:10713000D3085B435B0B2620315E5943CB171B05FD
:107140001B0D5B181B1390082427F15F4843C117E0
:10715000C904C90C091849135B182220315E5B1859
:10716000D8170F210140CB181B119A182A60200054
:1071700003B00CBC90469946F0BD094B98474000BF
:107180002860D4E700232B600F246442EFE7C04659
:10719000C96900000006FFFF350C0000000050C365
:1071A000E1CC0000F8B507000E0080221201762124
:1071B00009480A4B98470A4C0A4D210028000A4BFF
:1071C0009847220029683800084B984769682200D0
:1071D0003000074B9847F8BD34080020C1880000F4
:1071E000B0080020E4080020416D0000C56F0000D9
:1071F000457000000122014B1A7070470100002009
:1072000030B583B06B46DD1D0B4C01222900206890
:107210000A4B98472379DBB25A1CD2B222712978E3
:10722000074AD1542379DBB223716379637901333F
:10723000DBB2637103B030BD900200201189000001
:10724000EC08002070B5094C094A00212000094DC6
:10725000A847094A01212000A84708492000084BF7
:1072600098472000074B984770BDC046540800203F
:1072700001720000358F0000F571000090020020BF
:10728000098F0000DD8E000000B583B06B46D91D6C
:1072900008700022064B1A70064B18680132064B24
:1072A0009847034A1378002BFCD003B000BDC046BA
:1072B0000100002090020020DD88000010B50400CD
:1072C0000022074B1A70074B984782B2064B18688A
:1072D0002100064B9847024A1378002BFCD010BDC2
:1072E0000100002025DD000090020020DD88000064
:1072F00030B583B015006B46D9710733064C0122B7
:1073000019002068054B9847206801222900044B8A
:10731000984703B030BDC046A4080020DD880000B7
:107320001189000000B583B001AB19705A70044A8E
:10733000106802221900034B984703B000BDC046F5
:10734000A4080020DD88000010B582B01848194B51
:107350009847194B9847194C19492000194B9847E1
:107360002000194B98478022120119212000174B49
:1073700098476B46DC1D22000F211920144B9847BB
:107380002378332B05D013480A4B9847002002B0CE
:1073900010BD1148074B98477F22202119200F4C20
:1073A000A047022225211920A0470120EFE7C0466F
:1073B00034E50000BD7200004D6600003408002076
:1073C000A4080020D3880000B5880000C188000010
:1073D000F17200004CE5000048E800002573000051
:1073E0000122014B1A7070470200002070B582B074
:1073F0000E4E0F4D340010E02378DBB25A1CD2B28F
:1074000022706A46D1790B4AD1542378DBB22370BB
:10741000637863780133DBB2637001226B46D91D58
:107420007068A8470028E7D102B070BD980200201C
:1074300011890000EC0C002070B5094C094A0021AC
:107440002000094DA847094A01212000A847084902
:1074500004312000074B98472000074B984770BD28
:1074600050070020ED730000358F0000E17300002D
:1074700098020020098F0000DD8E0000014B587833
:10748000C0B270479802002000B583B06B46D91D8A
:1074900008700022064B1A70064B58680132064BE2
:1074A0009847034A1378002BFCD003B000BDC046B8
:1074B0000200002098020020DD88000010B50400C2
:1074C0000022074B1A70074B984782B2064B586848
:1074D0002100064B9847024A1378002BFCD010BDC0
:1074E0000200002025DD000098020020DD88000059
:1074F0000A4B5B78FF20002B00D17047074B1A7AAC
:10750000D2B2511CC9B219720549885C1A7AD2B23A
:107510001A725A78013AD2B25A70EEE798020020F5
:10752000EC0C002010B50448044B9847044B002293
:107530001A701A725A7010BD50070020AD8F0000EB
:107540009802002010B5074B1B78002B05D0064B86
:107550001B78002B02D0054B984710BD044B984771
:10756000FBE7C04603000020A4020020BD7200001B
:107570008984000000B583B00A4B1B78002B05D02E
:10758000094B1B78002B03D0084B984703B000BD74
:10759000020007496846074B98476846064B9847DC
:1075A000F4E7C04603000020A40200208972000016
:1075B00084E50000E1DC000089840000F0B5CE46DF
:1075C00000B58AB002AC294B220023CB23C2198814
:1075D00011809B7893702000254DA847C027FF0598
:1075E0004023994658334A46FA50FA208000214EEB
:1075F000B04794234A46FA50FA208000B0471E4B09
:107600001A6802929B88A3802000A8471B4B9847CA
:107610000500002300930024184E194F01E04F2C61
:1076200010D0B047401B174B98420ED8B8470028DF
:10763000F5D0154B98470190144B9847009C019B3F
:107640000093ECE7009B4B2BEBD16420094B984750
:107650000B4C0D4E0D4D01E0B047A847A047002848
:10766000FAD10AB004BC9146F0BDC04688E50000DE
:10767000457500003D84000048E8000031840000AA
:107680007D7400001F4E0000F1740000757500004D
:10769000F0B5DE4657464E464546E0B58BB0040091
:1076A0000191150099460023137002A82F4B020088
:1076B000C2CBC2C2198811809B7893702C4B98471B
:1076C000207800280CD02B4B9A462B4F2B4ED047BE
:1076D0002078B8470520B047013420780028F6D13B
:1076E000274B984780460024254E264F05E00199F8
:1076F0002800254B984700281FD1B0474346C01AA1
:1077000048450FD2B8470028F1D02B199B461F4B94
:1077100098475B461870174B98470134A4B2002372
:107720002B55E4E7002301930A20144B9847154F8B
:10773000164B99460F4B98460AE001230193F3E755
:107740002E19C8473070C0470134A4B200232B550E
:10775000B8470028F4D10E4B984701980BB03CBCB9
:1077600090469946A246AB46F0BDC04698E500005B
:107770004575000075750000897400003D840000A7
:10778000318400007D74000033DD0000F1740000DE
:107790002575000070B5A0B006000C00284B6A46A5
:1077A00028492948294DA847112C29D032002849B9
:1077B00010A8284B9847224B6A46224910A8234C10
:1077C000A047002822D06846234B9847C0B26B469A
:1077D0001C782300303B062B2DD9002829D06B467E
:1077E0005A1C00230133DBB21478210030390629FA
:1077F00022D901329842F5D1FF24200020B070BD7B
:107800003200164910A8134B9847D4E70C4B6A4630
:107810000C4910A80D4CA047FF240028EDD0D2E75A
:1078200022000F4910A80B4B984710A80D4B984702
:10783000E3E7FF24E1E700239842F1D1FF24DCE7EE
:10784000B80B0000A8E50000ACE500009176000050
:10785000D4E50000E1DC000025DD0000B8E5000013
:10786000F0E500004575000010B590B00200064933
:107870006846064B9847FA239B0008AA04496846C5
:10788000044CA04710B010BD00E60000E1DC000091
:10789000A8E5000091760000F0B5DE4657464E465A
:1078A0004546E0B5CBB0984654AB1F8855AB1B7826
:1078B0009B46112821D013000A0060492AA8604C79
:1078C000A047604B0AAA60492AA8604DA8473A0021
:1078D0005F492AA8A0472AA85E4B98472AA85E4B72
:1078E0009847002209AB9A70002F31DD00241D005B
:1078F000584B9A46584B994612E0019700920B005C
:107900005A4656492AA84E4CA047E4E76A70280018
:10791000D0472800C847730616D00134BC4217DA96
:1079200026004346195D0A090F230B401100303130
:10793000092A01D93732110029701A003032092B77
:10794000E4D937331A00E1E7C820454B9847E4E70C
:107950002AAC444B1A8822809B78A37020003D4BB0
:107960009847414B0AAA38492000384CA0470028C4
:1079700060D05A463D4903A8314B98473C4B984745
:107980000500002399463A4C3A4E3B4FA047401B16
:107990003A4B98421BD803A90AA8B047002816D131
:1079A000B8470028F2D0364B98476B464A46282104
:1079B0005B189854334B98474B460133DBB29946DA
:1079C00000236A464946282012185354DEE7C8208F
:1079D000234B984703A90AA8264B98470024002860
:1079E00004D0254E264B9846264F0CE0264B984750
:1079F0000120404217E0C0470AAD2855B84701347E
:107A0000E4B200232B55B0470028F4D10AA81F4B3D
:107A10009847040002001E492AA8094B98472AA843
:107A20000C4B984720B24BB03CBC90469946A246BE
:107A3000AB46F0BD01204042F5E7C04640E60000FD
:107A4000E1DC000088130000A8E50000917600004A
:107A500054E6000045750000BD74000028E60000F3
:107A60003D840000A4EA00003075000064E60000D8
:107A70003184000033DD00007D7400002F750000AC
:107A8000F17400007575000025750000D1DA000062
:107A900070E60000F0B5DE4657464E464546E0B576
:107AA0009FB001900C000092494E4A4D33000AAA43
:107AB00029004948494FB84733000AAA29004848D5
:107AC000B847002C56DDA0462300009A454916A869
:107AD000454CA04702A8454B020032CB32C2198860
:107AE00011809B789370424CA04716A8A04716A817
:107AF000404B9847404B98470400002399463E4E20
:107B00003E4F3F4DB047001BA84236D8B84700282B
:107B1000F8D03C4B984705003B4B98472C2DF0D1B3
:107B20004B4601339BB29946042BEAD101239B4675
:107B30000025314F314B9946344EB847001BB042B7
:107B400035D8A84533DDC8470028F6D02D4B9847D7
:107B5000060000902C4B9847009B402B18D9373ECD
:107B6000F6B25B46002B16D03601F3B29A460023DC
:107B70009B46E1E780246400A5E700204B46042BE8
:107B8000D4D01FB03CBC90469946A246AB46F0BD4F
:107B9000303EF6B2E5E753461E43F3B29A466B1CFD
:107BA000019A514651559DB201239B46C4E70023DB
:107BB000019A53556420164B9847104C114E124DA4
:107BC00001E0B047A847A0470028FAD10130D8E724
:107BD000B80B0000A8E5000088E6000091760000E0
:107BE00098E60000A8E60000E1DC000098E500004F
:107BF00045750000BD740000318400007D740000F4
:107C000087130000F1740000757500009F0F0000DD
:107C10003D84000030B591B00400FA23DB006A46D1
:107C20000C490D480D4DA84700231A006A4492786C
:107C3000E25401330F2BF8D10023E37322000849EB
:107C40006846084B98476846074B9847012011B093
:107C500030BDC046A8E50000ECE6000091760000CB
:107C6000F8E60000E1DC000045750000F0B5C6460E
:107C700000B5524CA5443220514B9847514B984780
:107C8000514B9847514B9847FA239B0006AA5049FD
:107C90005048514CA047041E06D120008323DB002E
:107CA0009D4404BC9046F0BD4C4B06AA48494C4844
:107CB000494CA047041EF0D0484B06AA4449494805
:107CC000454CA047041EE8D0FA239B0006AA404971
:107CD0004548414CA047041EDFD0404B06AA3C4912
:107CE00042483D4CA047041ED7D001A8404B9847BE
:107CF000404B06AA36494048374CA047041ECCD01A
:107D00003E4B06AA32493E48334CA047041EC4D01D
:107D10003A4B06AA2E493B482F4CA047041EBCD024
:107D2000364B06AA2A4938482B4CA047041EB4D02B
:107D3000364B06AA36493748274CA047041EACD01C
:107D40001E25354B9846354F234E354B06AA4146E6
:107D50003800B047041E04D1013DEDB2002DF4D12E
:107D60009BE7264F1A4E3B0006AA31002D481A4DBC
:107D7000A8473B0006AA31002B48A8473B0006AAAB
:107D800031002A48A8473B0006AA31001C48A847F2
:107D90003B0006AA31002648A8473B0006AA31004E
:107DA0002448A8473B0006AA31002348A8473B00C7
:107DB00006AA31002148A8476FE7C046E8FBFFFF4D
:107DC000718400005184000025750000BD7500001D
:107DD000A8E5000004E7000091760000204E0000B6
:107DE0000CE700002CE7000038E7000048E700003F
:107DF000157C00001027000054E70000B80B0000BD
:107E000060E7000070E7000080E7000030750000C8
:107E10009CE70000A8E7000010E600001CE6000058
:107E200088130000ACE5000088E60000C0E7000011
:107E3000D0E70000E0E70000F0E7000014E80000F1
:107E400070B588B03220114B98470024104E114D68
:107E500008E00134A4B222000F496846A8476846EA
:107E60000E4B9847B0470028F3D068460C4B6A4643
:107E700032CB32C21B881380084B9847FA2040004F
:107E8000024B9847012008B070BDC04671840000C5
:107E90006D7C0000E1DC000020E80000457500007A
:107EA00040E80000024B1870024B19707047C04642
:107EB00003000020A402002000B583B001A9030A3A
:107EC0000B704870034B18680222034B9847002040
:107ED00003B000BDA4080020DD8800000023074A8D
:107EE0001370074A1370074A1370074A1380074A32
:107EF0001380074A1380074B18707047F610002054
:107F0000FB100020EC100020F2100020F4100020E4
:107F1000EE100020ED10002010B50122044B1A7065
:107F2000002801D0034B1A700348044B984710BD3A
:107F3000FA100020F710002098B00000B97E000071
:107F400010B50022084B1A70084B1B78002B04D187
:107F50000122074B1A70002010BD0020054B9847E6
:107F60000028F8D1F4E7C046F0100020F7100020F8
:107F7000FA100020197F000010B504000848094BD2
:107F80009847002802D10022074B1A70002C02D01B
:107F90000022064B1A70F020054B984710BDC046D2
:107FA00017350000B97E0000FA100020F7100020FD
:107FB000F587000010B50122084B1A70084B1B789A
:107FC000002B04D10022064B1A70002010BD0020A7
:107FD000044B98470028F8D1F4E7C046F010002081
:107FE000FA100020797F0000F0B583B001AB020ADF
:107FF0001A7058700026FF2301AC082031270FE0CB
:108000005B007B40DBB2013AD2B2002A05D05DB200
:10801000002DF5DB5B00DBB2F5E70136022E03D065
:10802000325D53400200F2E78B4205D00232054B2D
:108030001A70022003B0F0BD0022024B1A7000201B
:10804000F8E7C046ED10002010B582B01F4B9847EE
:1080500000282ED100201E4B9847031E2FD11D480B
:108060001D4B98470123002826D101AC1B4B1868F3
:10807000032221001A4B9847A17823781B026078CD
:108080001843184B18800022174B1A70174B98474B
:10809000002802D10122144B1A70124B1B88144A7B
:1080A00014490B4093420DD00322134B1A70032343
:1080B00002E0124B98470300180002B010BD0E4AB0
:1080C0001070F9E70E4B98470300F5E7B57F000005
:1080D000797F0000C8EF0000B97E0000A4080020EE
:1080E00011890000EE100020EC100020E97F000054
:1080F000070800003F080000ED100020DD7E0000B2
:10810000417F000010B51F4A1F4B1A8000231F4AF1
:10811000137001221E490A701E490A701E4A13700C
:108120001E4A13701E4A13701E4A13801E4A138083
:108130001E4A13801E4B98471E4C1F4920001F4BA0
:10814000984720001E4B9847802212017021200082
:108150001C4B98471C4B98470123002801D018005E
:1081600010BD1A4B984701230028F8D1184B9847A7
:1081700001230028F3D1174B9847431E9841C3B2FF
:10818000EDE7C046245C0000F8100020F01000204D
:10819000F7100020FA100020F6100020FB1000203D
:1081A000EC100020F2100020F4100020EE1000204F
:1081B0004D66000034080020A4080020D388000089
:1081C000B5880000C1880000B57F0000797F0000FD
:1081D00049800000417F000030B583B08022120149
:1081E00070214248424B9847424B9847002828D17B
:1081F000414B1888414B9847002826D13E4B1B889D
:108200003F4A934206D023D93E4A934202D03E4A87
:10821000934220D13D4B1868062269463C4B984753
:10822000354B1B88364A934233D018D9354A93428E
:1082300025D021D9374A934221D0334A93421ED0C8
:1082400016E0354B984703B030BD334B9847FAE7FB
:10825000324A9342DED001202F4B9847F3E72F4A52
:10826000934216D02E4A934213D02E4A934210D0F6
:108270000120294B9847E6E72B4A9342F8D16B46F9
:108280001B786A46527869468C78C8780D794979A6
:1082900008E06B4618785D789978DB786A46127941
:1082A0006C46647900022843204D28801B0213434A
:1082B0001F4A138000231F4A13701F4A13701F4B5D
:1082C0009847002802D101221A4B1A70184B1888BF
:1082D00021001A4B9847002802D10122164B1A7030
:1082E000174B9847431E9841C0B2ACE734080020B2
:1082F000C1880000B57F0000F8100020B97E0000A2
:10830000245C000058640000A27C0000A408002047
:108310001189000066780000DD7E0000DE44000068
:10832000E05800001A4000009C600000F21000209D
:10833000F4100020F6100020FB100020E97F000060
:10834000417F000010B5074B1888074B9847074935
:10835000074B98470749084B98470849084B9847E7
:1083600010BDC046F410002045D8000000FF7F4734
:10837000FDCF000000002F438DD2000000003442EA
:10838000CDD4000010B5054B1888054B984705491A
:10839000054B98470549064B984710BDF210002041
:1083A00045D8000000FF7F47FDCF00000000C84215
:1083B0008DD200000F4B1A6801321A601B79002B16
:1083C00016D00D4B1A88002A0DD019005B88013B8E
:1083D0009BB24B80002B0BD14A8004219C23C022EE
:1083E000D205D15004E004219823C022D205D150F7
:1083F0007047C046BC0200200400002010B50749A9
:1084000001230B61064A4A610B760831054C2000B6
:10841000054B98472000054B984710BDBC02002033
:10842000B5830000BC070020D58B0000998B0000AD
:10843000014B18687047C046BC020020034B196806
:108440001A0013685B1A8342FBD37047BC020020FA
:108450000122054B1A7104219823C022D205D15064
:10846000024B1A885A807047BC020020040000208A
:10847000014B18807047C0460400002010B5014B26
:10848000984710BD9585000010B50400054B98472E
:1084900001002000044B9847FA208000034B9847C6
:1084A00010BDC04625DD000029C40000F58700008E
:1084B00008490B79DBB25A1CD2B20A71064AD318AA
:1084C00018710B79DBB20B71137813780133DBB2BF
:1084D00013707047D8030020D802002010B582B076
:1084E00001AB188006490020064CA0470649012030
:1084F000A04740210548064B9847002002B010BD18
:108500002D85000055C4000015850000E003002003
:10851000FDC3000010B540210248034B98470020DE
:1085200010BDC046E0030020FDC30000F8B51600F2
:1085300000210848084B9847002E08D0054D00241C
:10854000064F01CDC0B2B8470134B442F9D1002082
:10855000F8BDC046E003002029C40000B18400003B
:1085600010B506484030064B9847064B98470648DA
:10857000064B9847064B984710BDC046E0030020C5
:10858000E9CA0000B9C300000800002061CB000068
:1085900099CB000010B5054B9847054CA047002823
:1085A000FCD004490320044B984710BD61850000AE
:1085B000A5C40000DD84000055C4000010B5836927
:1085C000002B00D0984710BD10B5C369002B00D018
:1085D000984710BDF0B583B005000E00036A5B5CE0
:1085E0005C00E418E400836A9C466444271D019201
:1085F0006B46197938000D4B984728000C4B98476B
:10860000012807D9019B190A3800084B9847A38A0B
:108610000133A382A38A0133A3822368002B02D0F3
:1086200031002800984703B0F0BDC046E99600002D
:1086300069990000F0B5D64600B582B005000191F9
:1086400016001C0008AB1F78002835D0002935D053
:10865000002A35D00020002F02D00998431E9841EF
:108660003F221849184B9A469847621CFB0FD017B7
:10867000BA425841C0B240221249D0470023FF22DB
:10868000F2540133DBB29C42FAD22E622423EC5422
:108690000133EF54099BAB62019928000B4B9847BB
:1086A000002805D10A4BAB600A4B2B600A4B6B606C
:1086B00002B004BC9246F0BD0020D1E70020CFE715
:1086C0000020CDE774E800009D950000F9980000B7
:1086D000D5850000BD850000C9850000F0B583B0D8
:1086E00007000C000092019300281BD0002A1BD029
:1086F0001800431E9841234E66223100224DA847A0
:108700002423FB5C0020A3424041C0B26722310019
:10871000A847396A0B5DFF2B2AD1DB3BF85C0026AA
:10872000002307E00020E6E70020E4E70133DBB2A6
:10873000834205D8CA5CFF2AF8D00136F6B2F5E7C5
:108740002523FB5CB34216D373009B19DD00BB6A83
:1087500058190430019A00990C4B984700280DD104
:108760003B6A1E55BB6A5B1900229A8203B0F0BDBA
:108770000D204042FAE71C204042F7E70D2040421E
:10878000F4E7C04674E800009D9500004D96000097
:10879000EFF31083036072B6BFF35F8F7047BFF3D0
:1087A0005F8F036883F310887047000070B5040082
:1087B0000D00431E9841C0B2E022520009490A4B05
:1087C00098472368AB4208D0002B08D125602000D1
:1087D000064B9847064B636170BD0020FCE71220F2
:1087E0004042F9E790E800009D9500003D9C0000A4
:1087F000B207000010B5044B1C68044B98470100F9
:108800002000034B984710BD60040020E199000050
:10881000F999000010B584B0140001AB1438828BB4
:108820001A800294054A5A8003911900044B984714
:10883000002800D1200004B010BDC0460080FFFF1A
:10884000A1A1000010B584B0140001AB1438828BD4
:108850001A800294054A5A8003911900044B9847E4
:10886000002800D1200004B010BDC0460180FFFFE9
:10887000A1A1000070B504000D00431E9841C0B2D4
:108880005E220749074B984729002000064B98476E
:10889000002803D1054BA361054B636170BDC04641
:1088A000ACE800009D950000EDA0000045880000A8
:1088B0001588000010B5014B984710BD1DA10000A0
:1088C0008905890D8023DB001A400A43828310004A
:1088D00070471430086000207047000070B5060033
:1088E0000C00150000280DD00800431E9841C0B2AE
:1088F00034220549054B984733682A00210030008F
:10890000984770BD0020F3E7C8E800009D9500007F
:1089100070B506000C00150000280DD00800431E9D
:108920009841C0B23D220549054B984773682A001B
:1089300021003000984770BD0020F3E7C8E8000030
:108940009D95000070B504000D00002816D00800A9
:10895000431E9841C0B2402209490A4B98476560BE
:10896000201D2900084B9847002806DB074BA382EF
:10897000074B2361074BE360002070BD0020EAE74E
:10898000DCE800009D95000001A700000080FFFFCB
:108990001D8A0000E189000030B587B004000D0099
:1089A000002814D00800431E9841C0B2B3220949E0
:1089B000094B98472B6803936B680493AB6801934A
:1089C0000593201D03A9054B984707B030BD002033
:1089D000ECE7C046DCE800009D950000FDA7000024
:1089E00070B584B004000E001500431E9841C0B25B
:1089F000A3220749074B984700230293019603954A
:108A000020000C3801A9044B984704B070BDC04643
:108A1000DCE800009D9500009989000070B584B0E5
:108A200004000E001500431E9841C0B2872207497A
:108A3000074B9847029600230193039520000C38BA
:108A400001A9044B984704B070BDC046DCE80000A3
:108A50009D95000099890000F8B5CE46474680B53F
:108A6000814603689C46002B05D08E681C000025BB
:108A70000127BF1A0DE0124B984718E0FB18A068B9
:108A800080464344B3420CD223682500002B0BD010
:108A90001C0063689342F1D8A068804643449B1A47
:108AA000F0E7A44507D02C002000064B98470CBCEB
:108AB00090469946F8BD4846014B9847F7E7C046AF
:108AC000C9950000F5950000F0B5C64600B582B026
:108AD000070044690369013398460361037EDB079D
:108AE00011D4037E9B070ED4002C10D0434662683D
:108AF0009B1AA26893420AD314239C46844463467B
:108B00000193124E14E03B7E022213433B7602B0E7
:108B100004BC9046F0BD7D69E36820009847002DB5
:108B2000F5D02C0043466A689B1AAA689342EED39C
:108B30000198B047237C012BEDD143466360424648
:108B400021000198024B9847E5E7C0463D9600009A
:108B5000598A000070B505000C00002811D00800EB
:108B6000431E9841C0B23B220749084B9847210059
:108B70002800074B984700232B61064B2B600020F1
:108B800070BD0020EFE7C046F8E800009D950000AA
:108B900041A90000C98A000010B50400431E984195
:108BA000C0B253220749084B98472000074B98470B
:108BB000002804D12000064B9847002010BD11204A
:108BC0004042FBE7F8E800009D950000E9AA00009C
:108BD000D5AA000070B582B004000D00002824D092
:108BE0000800431E9841C0B27A221E491E4B984786
:108BF000237E0122134323762600143629003000F9
:108C00001A4B9847002812D123696B60226929000A
:108C10003000174B9847237E012293432376237E0F
:108C200000209B070FD402B070BD0020DCE7237E3C
:108C30000122934323767E320A4900200A4B98474B
:108C400012204042EFE701A80A4B9847237E0222F8
:108C5000934323762000084B984701A8074B984779
:108C60000020E0E7F8E800009D950000A5950000D1
:108C7000598A00009187000001AB00009F87000027
:108C800010B5083800230363436A002B00D09847CF
:108C900010BD10B5083800230363C36A002B00D051
:108CA000984710BD10B504002C30044B9847236A38
:108CB000083C002B01D02000984710BDE996000029
:108CC00070B504000E00150000281DD000291DD02D
:108CD0001000431E98413C22FF320F490F4B98472A
:108CE0004423E25A0833E35A9A4211D1A6644C2332
:108CF000E5520022083BE252433B23632000083048
:108D0000074B9847280070BD0020E4E70020E2E709
:108D10001C204042F7E7C04610E900009D95000086
:108D200069A0000070B5040001000839838F4C224F
:108D30008A5A9A420CD00A00896C5D1C4420155254
:108D4000C95C2000044B98472000044B984770BD35
:108D5000034B9847FBE7C04661A0000069A00000F4
:108D600071A00000F0B5CE46474680B585B005003D
:108D70000E001700002815D0002913D0002A2AD190
:108D8000AC22520029490020294B984703A8294BBF
:108D9000984728003430284B984703A8274B98471A
:108DA00000253CE0AC22520020490020204B98478F
:108DB00003A8204B98473435280001951E4B98474F
:108DC000804603A81D4B984700254346002B26D01C
:108DD000002F16D123E0AC22520014490120144B7D
:108DE000984703A8134B9847343528000195124B38
:108DF0009847804603A8114B984743460025002B0F
:108E00000DD000240E4B9946651CADB23119019866
:108E1000C8470134444502D2A3B29F42F4D8280087
:108E200005B00CBC90469946F0BDC04610E9000064
:108E30009D95000091870000299700009F87000002
:108E4000A1960000F8B504000D0016001F000028D0
:108E500026D0002926D0002A26D01800431E98418B
:108E60003A221449144B9847200034303A0031001C
:108E7000124B9847002819D1200008302900104BC8
:108E8000984700280BD10F4B63600F4B23600F4BAB
:108E9000A3600F4BE3600F4B23610F4B6361F8BD81
:108EA0000020DDE70020DBE70020D9E70D2040426D
:108EB000F5E7C04610E900009D9500004D960000C2
:108EC000DD9F0000658D0000C18C0000258D000035
:108ED000A58C0000818C0000938C000010B504006C
:108EE000431E9841C0B261220449054B98472000B7
:108EF0000830044B9847002010BDC04610E9000020
:108F00009D9500004DA0000070B504000D000028E4
:108F10000AD00800431E9841C0B277220349044B8F
:108F200098472C60002070BD0020F6E710E9000093
:108F30009D95000070B505000E001400431E984179
:108F4000C0B283221649174B9847012E11D0002E2C
:108F500004D0022E18D00D20404209E0AC62621EFF
:108F60009441E2B22800083001210F4B98470020BD
:108F700070BD6C62621E9441E2B22800083002218A
:108F8000094B98470020F3E7EC62621E9441E2B27D
:108F9000280008300321044B98470020E8E7C0462A
:108FA00010E900009D95000079A0000010B50400B4
:108FB000431E9841C0B22222FF320449044B984715
:108FC00020003430034B984710BDC04610E9000024
:108FD0009D9500004D970000F0B504000E4B5A78A7
:108FE000904217D0002300200B4F0F2626403D0053
:108FF00008E0013040B204280AD02033EA18527841
:10900000A24206D0D95D0029F3D19642F1D100E009
:109010000538F0BD0020FCE7640400200020704704
:1090200070B504000D000A4B98474201094B9B188C
:109030009A780023032A01D0180070BD4001054B27
:10904000181883692900200098470300F4E7C046F8
:10905000D98F000064040020F0B585B005000F0032
:109060001600514B98470400002F62D14F4B42012C
:1090700099180020C870D35C002B0ED062014B4BB6
:109080009B1801229A706401484B1C19E178E3692E
:1090900032002800984705B0F0BD8B78032B0CD028
:1090A000424B62010C329A1864011C19607800214D
:1090B000E36998470223A370EDE73C4A0B000C25B7
:1090C0004D5761010C3152185878DB6901219847DE
:1090D000002817D06201354B9B1805229A70033A7D
:1090E000DA70002D09DB6401304B1C196078802395
:1090F000184301212E4B9847CDE764012B4B1C19D7
:109100006078F6E76401294B1C190423A370637887
:10911000002201920292002D08DB8032134301A845
:10912000037201234372234B9847B4E70F22134085
:10913000F5E7012F0AD0022F1DD0032F2CD04201BA
:109140001A4B9B1806229A70DA709CE7174B420163
:1091500099180220C870D35C002B05D06201134B14
:109160009B1805229A708EE702228A70002128003F
:109170000F4B984787E70D4B420199180420C870A0
:10918000D35C002B05D06201084B9B1801229A701A
:1091900079E702238B707EE74201044B9B18002283
:1091A0009A700532DA706EE7D98F000064040020EF
:1091B00011B80000DDB90000F0B5C64600B50400E6
:1091C0001D4B9847060045010C351C4B5D192900C5
:1091D00020001B4B9847C0B208280AD0012120006C
:1091E000184DA847802020430121A84704BC904681
:1091F000F0BD00212000134B984698478027274355
:1092000000213800C04772010C4B9B1801229A7054
:109210005B692900200098470028E7D17601074BB9
:109220009E190523B37001212000064CA04701219F
:109230003800A047DAE7C046D98F00006404002058
:1092400071B9000011B8000010B5104B9847002804
:109250001BDB0F4C8022002120000E4B984723007F
:109260008034FF210C4A59705A619A61DA612033C7
:10927000A342F8D109490020094CA047094901201F
:10928000A04709490220A047002010BDD1B100002D
:10929000640400205BDB00001D900000B991000019
:1092A00015BC0000219000005990000010B5014B42
:1092B000984710BDF1BB000010B5014B984710BD99
:1092C000BDB2000010B5014B984710BD15B30000AA
:1092D00010B5014B984710BD23B30000F8B5050049
:1092E0000E0017000F4B9847002814DAFF200D4B93
:1092F0009847041E12DB3A00310028000A4B9847B9
:10930000002807DB094A640113195D7003231E401E
:10931000A6540020F8BD14204042FBE7152040422F
:10932000F8E7C046D98F000031B300006404002084
:1093300010B582B200210020014B984710BDC046F5
:10934000DD92000070B50500064B9847041E07DB50
:109350002800054B98476401044B1C19FF236370D8
:1093600070BDC046D98F00005DB4000064040020C9
:1093700070B504000E4B9847051E15DB43010D4ADE
:109380009B5C5A425341013341010A4A521893707F
:109390002000094B9847002800DB70BD6D01054B8C
:1093A0005D190023AB70F8E712204042F5E7C04694
:1093B000D98F0000640400202DB50000F0B5D6461A
:1093C0004F464646C0B586B00400077A3800404B89
:1093D00098470500667A63689846002800DA71E0CD
:1093E00004A83C4B98476A013B4B9B189A7817237B
:1093F0006B441A701B78012B10D004A8374B984788
:1094000017236B441B78DBB2052B5ED0062B23D0D1
:109410000120002B3CD11320404239E02E4B9946CD
:109420006B019A464B46534403229A7004A82B4B77
:1094300098474B465246D35C002B10D0237A721EBD
:109440009641F6B222680192424602927FB2002F04
:1094500017DB0F22134016E01020404218E06B018A
:109460001D4AD218D17C0902937C5B189BB2002B59
:1094700014D10423937000220126237A21680191DC
:1094800002928022134301A803724672144B98473C
:1094900006B01CBC90469946A246F0BD42469A4290
:1094A00000D91A006D010C494D19297B7F2905D877
:1094B000237A2168019102920026CAE79A42B641B6
:1094C0007642DAE712204042E2E70220E0E7C046B7
:1094D000D98F000091870000640400209F8700005E
:1094E000DDB9000070B50400002905D0012921D0A4
:1094F0000221134B984770BD124B9847051E1CDB89
:10950000022120000E4B98470028F4D000212000B3
:109510000B4B98470028EEDB6D010B4B5D190123C7
:10952000AB700233EB70EB690022032120009847F7
:109530000020E0E7024B9847DDE712204042DAE7DF
:1095400011B80000D98F00006404002070B50D0030
:1095500014000F4B98470300221E08D0002B05DB98
:10956000012D0BD0002D04D0022D0CD070BD094A66
:10957000F4E74001084B18184261F7E74001064B39
:1095800018188261F2E74001034B1818C261EDE739
:10959000D98F00001D90000064040020002800D135
:1095A00000BE70470368002B0AD08B420AD01B68AC
:1095B000002B03D09942FAD1012000E0002070472F
:1095C0000020FCE70120FAE770B504000D00064B0F
:1095D000984701235840C0B239220449044B9847A8
:1095E00023682B60256070BDA595000030E9000060
:1095F0009D95000003680B600160704770B5050021
:109600000E0004680A4B984701235840C0B24F220D
:109610000849094B98472B68002B03D12E60336013
:1096200005E01C002368002BFBD12660336070BD71
:10963000A595000030E900009D9500000368002B0F
:1096400001D01A68026018007047000070B504006D
:109650000E00150000280BD0002918D00120002A88
:1096600007D128220C4900200C4B98476B1E07E0BD
:10967000002028220849094B98476B1E2B4208D12D
:1096800063600023A360E3602660002070BD0020BB
:10969000EFE70D204042F9E750E900009D950000FA
:1096A00070B504000D00002815D00800431E984135
:1096B000C0B240220A490B4B9847A368E2689A421D
:1096C0000BD0626813402268D35C2B70A36801330F
:1096D000A360002070BD0020EBE70A204042F9E7BC
:1096E00050E900009D95000070B504000D00431E78
:1096F0009841C0B251220A490A4B98476368E26810
:1097000013402268D554E3686168A2689A1A8A42B5
:1097100001D9591AA1600133E360002070BDC04631
:1097200050E900009D95000010B50400431E9841CB
:10973000C0B267220349044B9847E068A368C01A87
:1097400010BDC04650E900009D95000010B5040012
:10975000431E9841C0B271220349044B9847E36805
:10976000A360002010BDC04650E900009D95000098
:109770000300064A1268002A04D0044A1068C3187D
:10978000136070470249014A1160F6E7E4040020C3
:10979000003100200020704770B504000D00514BCF
:1097A0001B681E02E022D20016409B065B0F1E4380
:1097B0004D4BC01843425841C0B2B2224B494C4BAA
:1097C0009847238CDB0718D40322238C1342FCD147
:1097D00023789B070BD52378022293432370013211
:1097E000238C1342FCD10222238C1342FCD101238F
:1097F00023700322238C1342FCD10122238C1342B9
:10980000FCD1A685EA00521B92003A4B9B189A782D
:109810006270DA78A2701A79E270DB882381238C77
:109820005B05FCD1EB005B1B9B00324AD3181B8904
:109830006381238C5B05FCD1EB005B1B9B002D4AF5
:10984000D3189B7A2373238C5B05FCD1EB005B1B45
:109850009B00284AD318DB7A6373238C5B05FCD109
:10986000EB005B1B9B00234AD3189B89E3814022BA
:10987000238C1342FCD1EB005B1B9B001D4AD318C9
:10988000DB8923828022238C1342FCD1EB005B1BFB
:109890009B00184AD3181B8A638280225200238CB3
:1098A0001342FCD1EB005B1B9B00124AD3185B8A6E
:1098B000A38280229200238C1342FCD10D49EB003D
:1098C0005A1B92008A18127D22770022A2625D1B29
:1098D000AD004D196B7823700332238C1342FCD1F9
:1098E000002070BD2060800000F4FFBC90E9000003
:1098F0009D95000074E9000070B505000C00431E42
:109900009841C0B2EE221149114B98472000114BEB
:10991000984701002000104B9847002800D070BDE8
:109920006C610E4B9C420DD00D4B8022D2038021E6
:109930005A50BFF34F8FBFF36F8F0131FF315A5031
:109940001A60ECE7074B1D60EEE7C04690E90000A7
:109950009D9500009597000099970000000C00432A
:1099600000E100E0E8040020436958898006800F88
:109970000338431E984101307047000010B5104B6A
:1099800018684269917953790B40D90704D4990733
:109990000AD45B070ED410BD01239371928C92B24E
:1099A000836800219847F6E70223937143680021FA
:1099B0009847F0E704239371036800219847EAE78A
:1099C000E804002043B2002B07DB1F2318401E3B96
:1099D00083408022520001498B50704700E100E033
:1099E00010B503008000C01840011D301E21014B3E
:1099F000984710BDE1CC00000139FDD87047000048
:109A000010B5094B5A685A600220084B9847084B1A
:109A10009847084B9847084B9847084B9847FF20B2
:109A2000074B984710BDC04600400041119C000004
:109A3000D99A0000119B0000C59A0000819B00008C
:109A4000459A0000C30707D5184A194B1A62190036
:109A5000184A4B681342FCD1830707D5164A144BAA
:109A60005A621900134A4B681342FCD1430707D5C9
:109A70000E4A0F4B9A6219000E4A4B681342FCD1F2
:109A8000030707D50D4A0A4BDA621900094A4B68E9
:109A90001342FCD1C30607D5094A054B1A631900C6
:109AA000044A4B681342FCD17047C04600010100D4
:109AB00000180040FD07000007010100030101003C
:109AC00006010100034B08229A71043A5A71033AC5
:109AD0001A717047000400400B4B1B68DB045B0EDF
:109AE0001B040A221343094A9361D369F8214901EF
:109AF0000B40D36111000222CB681A42FCD0022233
:109B0000024B1A617047C046206080000010004080
:109B1000194A1A4B1A82180038210222435C134258
:109B2000FCD18222154B1A7518003821803A435C0B
:109B30001342FCD111490122CB681A42FCD00F4AD2
:109B4000138A80210B431382100048390E22435C94
:109B50001342FCD109491022CB681A42FCD0074AB3
:109B6000137D80210B431375100048390E22435C8E
:109B70001342FCD17047C04606030000000C0040B1
:109B800010B51F4B1C68A40E02221E4B1A8318002E
:109B90003821435C1342FCD11A4980225200CB6821
:109BA0001342FCD0184A174B1A6219008022520047
:109BB000CB681342FCD0A40280239B002343114AAC
:109BC000D36126231383100038210222435C134201
:109BD000FCD10C4B1B8B5B070BD50A499022120161
:109BE000CB6813409342FBD1084A5368002BFCD149
:109BF00010BD044980225200CB681342FCD0F3E729
:109C000020608000000C004080BB01040018004070
:109C10008023DB059B780322134098420CD08022DE
:109C2000D205FF239371937803218B430840184397
:109C300090709379002BFCD07047000010B5041E83
:109C400033D00068431E9841C0B22F221849194BE7
:109C50009847194B1C602268184913690B42FCD1C4
:109C600013889B070CD5138802218B43138013495B
:109C700013690B42FCD1216802220B691A42FCD104
:109C80002268138801210B43138013691942FCD108
:109C9000236801211A691142FCD1094A1A80074937
:109CA0001A690A42FCD1002010BD0020CDE7C04651
:109CB000A8E900009D950000EC040020038000004E
:109CC000008BFFFF10B5074B1C6823689B89DB05E1
:109CD00000D410BD2000636898472368802252009A
:109CE0009A81F6E7EC04002010B58469237EDB0737
:109CF00002D5A37DDB070FD4237E9B0702D5A37D6E
:109D00009B070ED4237E5B0715D5628B37231A423F
:109D10000CD00833638310BD012323750368984773
:109D2000F9E70223237583689847F4E7218DC9B2C8
:109D300043689847EFE7237EDB09ECD08023237646
:109D4000C3689847638B9BB26383E4E7064B9842F2
:109D500003D0064B984203D07047054B1960FBE7D0
:109D6000034B5960F8E7C046000C00420010004267
:109D7000F0040020054A0523904204D0BE231B06B0
:109D80009C466044830A0833D8B2704700040043FD
:109D900010B50C4B98420FD08003000E022809D05A
:109DA00005280CD0084A09490020094B9847012092
:109DB000404210BD002000E0012040B2F9E7012040
:109DC000FBE7C04600040043C903000018EA000096
:109DD0009D95000070B505000C000800314B9847B8
:109DE000C0B2E369DB0721D443001B18DB002E4A15
:109DF000D31859681C2319400322E3691A42FCD185
:109E000023689B070BD5236802229343236001320A
:109E1000E3691A42FCD10222E3691A42FCD1012310
:109E20000B4323600322E3691A42FCD10122E36958
:109E30001A42FCD143001B18DB001B4AD318596897
:109E400021600322E3691A42FCD143001B18DB00A6
:109E5000154AD3189B6863600422E3691A42FCD157
:109E600043001B18DB00104AD318DB68E36089014C
:109E7000890FA981636A0D4E1E4001238B429B41CD
:109E80005B429B03334363620422E3691A42FCD1C1
:109E900043001818C000044B1818438AEB810020B7
:109EA00070BDC046919D0000C0E90000FFBFFFFFEC
:109EB00070B50400444B984205D083031B0E032B5E
:109EC00053D0042B53D0414A41490020414B98477D
:109ED0000020E369DB0721D483001B189B003E4A66
:109EE000D318596B1C2319400322E3691A42FCD191
:109EF00023689B070BD52368022293432360032327
:109F0000E2691342FCD10223E2691342FCD101232E
:109F10000B4323600322E3691A42FCD10122E36967
:109F20001A42FCD1010083001B189B002A4AD31857
:109F3000586B20600322E3691A42FCD18B005B1846
:109F40009B00254AD3189B6B63600722E3691A4282
:109F5000FCD1C023DB0118420BD18B005B189B00A6
:109F60001D4AD3189B8FA3811DE00020B1E701207B
:109F7000AFE7194A880043189B00D3189D8FA38927
:109F8000ED04ED0C5B0B5B032B43A38130324018D7
:109F900080001218937B07221A40A3895203DB0426
:109FA000DB0C1343A3810C4B180030308A0055188A
:109FB000AD004019C07BA0735B1940331A78302381
:109FC000E254002070BDC04600040043630200005C
:109FD00018EA00009D950000C0E9000070B5060079
:109FE0000C00431E9841C0B2C6221249124B98473A
:109FF0002000124B9847051E01D0280070BDB461A7
:10A00000310020000E4B984720000E4B9847030666
:10A01000F3D41F2318401E3B83400B4A802153502A
:10A02000BFF34F8FBFF36F8F0131FF315350136078
:10A03000E3E7C04618EA00009D950000B19E0000CD
:10A040004D9D0000759D000000E100E082691368ED
:10A0500002210B4313600131D3691942FCD17047CF
:10A06000836989B219857047836901229A7570479F
:10A07000836902229A75704770B504000D001600BE
:10A08000431E9841C0B2164A1649174B98470223FF
:10A090002A009A430ED1A369002E05D101221A7518
:10A0A000A36901321A7570BD01229A75A369013244
:10A0B0009A75F8E7012D07D0032DF4D1A369002E7E
:10A0C0000BD080229A75EEE7A369002E02D10422FC
:10A0D0001A75E8E704229A75E5E780221A75E2E727
:10A0E0002302000018EA00009D95000070B50400EE
:10A0F0000D00431E9841C0B2A722D2000449054B6F
:10A100009847256129002000034B984770BDC04641
:10A1100018EA00009D950000D59D000070B5040070
:10A120001A4D431E9841C0B2194A2900194EB04732
:10A1300024692000431E9841C0B2174A2900B04745
:10A1400023680222134323600132E3691A42FCD1DF
:10A1500004250422032010261049E3691A42FCD189
:10A16000638B1B090340012B0AD001390029F4D16C
:10A17000013D002D06D06683E3691A42FCD1EBE76E
:10A18000002070BD06204042FBE7C04618EA0000F0
:10A19000550500009D95000025060000FFFF00000A
:10A1A000F0B5DE4657464E464546E0B583B005005D
:10A1B000884604690600731E9E41F3B20193B44FB2
:10A1C000BE22D20039001800B24EB0472869431EA3
:10A1D0009841C0B2B04A3900B0474046431E98414A
:10A1E000C0B2AE4A3900B0476B88DB0500D524E227
:10A1F00043465A8880235B001A4341464A802A001E
:10A20000C1C9C1C26268134363600422E3691A4290
:10A21000FCD12F693B689946A14A9D4901989D4B05
:10A2200098476B68012B5AD07B689E4A13407B602D
:10A230000422FB691A42FCD12B885A055CD56A8836
:10A24000D20704D56A888021C9000A436A805B006E
:10A25000954919400422FB691A42FCD17B6A80228D
:10A26000D2011A4080231B0213431943796204224E
:10A27000FB691A42FCD129690B7EDBB28B4A0320B1
:10A28000184204D10B7EDBB2013A002AF8D13E68B5
:10A290000421FA691142FCD17A8B92B2D90700D419
:10A2A000A0E093073ED501233B766B8880214901CE
:10A2B0000B436B806B887E490B406B800120030051
:10A2C00013405842584105386B88794A13406B80D7
:10A2D00003B03CBC90469946A246AB46F0BD4B4607
:10A2E0001B01A1D57A688023DB0213437B60042223
:10A2F000FB691A42FCD19FE76A885B00FF210B4093
:10A30000FE39114019430422FB691A42FCD17B6AD1
:10A310008022D20113400B437B620422FB691A4264
:10A32000FCD1A8E753071BD46B885B0535D52B8878
:10A33000DB09062119400422FB691A42FCD17B6A21
:10A340008022D2011340F12213430B437B62ED3A8A
:10A35000FB691A42FCD16B88564A13406B8066E059
:10A360006B68002B04DD6B888022520113436B80E5
:10A370006B881BB2002B06DB6B884D4A13406B8049
:10A3800002204042A0E77A68C0239B0213437B600F
:10A390000423FA691342FCD1EEE76B68002B12D15B
:10A3A0006B881BB2002B04DB6B88414A13406B8027
:10A3B0003DE07A68C0239B0213437B600422FB6963
:10A3C0001A42FCD1F0E7AB681A782823FA54042229
:10A3D000FB691A42FCD1AB680133AB606B68013B8F
:10A3E0006B6024E09B0722D56B68002B40D052079E
:10A3F0003ED43601F60F013B6B60002B00D01FE10D
:10A40000002E00D122E16B881BB2002B1DDB6B8874
:10A41000274A13406B80A9684B1CAB600422FB6980
:10A420001A42FCD12823FB5C0B7002233B760026EA
:10A4300080235B009A4603210422FF3B9C460133A4
:10A44000994626339B460196C2E07B68184A134022
:10A450007B600632FF32FB691A42FCD17A68C02366
:10A460009B0213437B600422FB691A42FCD1CEE7B6
:10A4700002233B760220404226E76268C0239B020B
:10A48000134363600422E3691A42FCD1B5E0C0467D
:10A4900018EA00009D950000F1050000F20500009B
:10A4A000C5050000FFFFFBFFFE070000FFFF0000E7
:10A4B000FFFEFFFFFFFBFFFF02421BD16B885B0526
:10A4C00035D52B88DB0906201840E3691A42FCD1F8
:10A4D000636A8026F6013340F12633430343636207
:10A4E000E3691A42FCD16B88784803406B800023F3
:10A4F00001936DE06B68002B04DD6B8880204001C8
:10A5000003436B806B881BB2002B07DB6B887048A2
:10A5100003406B8002235B42019359E06068C023D3
:10A520009B0203436360E3691A42FCD1EEE76B6868
:10A53000002B13D16B881BB2002B06DB6B886448A1
:10A5400003406B800023019342E06068C0239B02BC
:10A5500003436360E3691A42FCD1EFE7AB681B7801
:10A5600058462354E3691A42FCD1AB680133AB600F
:10A570006B68013B6B600023019329E00026019684
:10A580004E461E4224D06B68002B4DD002424BD168
:10A59000FF0E60460740013B6B60002B00D082E05D
:10A5A000002F00D185E06B881BB2002B2CDB6B8861
:10A5B000474803406B80A868431CAB60E3691A42BC
:10A5C000FCD15B46E35C03704B462376002301938A
:10A5D0006B88504603422DD02E69337EDBB23D4856
:10A5E000194241D1337EDBB201380028F8D143460D
:10A5F0005B881BB2002B00DA3FE76B88344A1340BC
:10A600006B800520404263E6636831480340636025
:10A61000E3691A42FCD16068C0239B020343636074
:10A62000E3691A42FCD1C2E74B46237602235B4220
:10A630000193CDE7019E30004AE60620404247E6FE
:10A64000012B00D0E7E6002E00D1E4E67A688023F3
:10A65000DB0213437B600422FB691A42FCD16B6866
:10A66000002B00D1CFE6D6E62768E0690242FCD194
:10A67000608B80B266461E4200D17FE74B460342A4
:10A6800000D119E726766B888026760133436B80EC
:10A690006B880F4E33406B806346184046424641FC
:10A6A000731F019394E7012B00D084E7002F00D1A2
:10A6B00081E760688023DB0203436360E3691A4239
:10A6C000FCD16B68002B00D16DE774E7FFFBFFFF47
:10A6D000FFFEFFFFFFFF000010B5024B1868024BA2
:10A6E000984710BDF0040020E99C000010B5024B13
:10A6F0005868024B984710BDF0040020E99C000008
:10A7000070B505000C00384B994202D08B031B0E2C
:10A710000CD0002D54D0601E8441E0B2962212016C
:10A720003249334B98470D20404248E0002850D131
:10A73000962212012D4900202D4B9847E369DB0733
:10A7400018D40322E3691A42FCD123689B070BD576
:10A7500023680222934323600132E3691A42FCD149
:10A760000222E3691A42FCD10D2323600322E3692C
:10A770001A42FCD10122E3691A42FCD12C6020006C
:10A78000431E9841C0B2922212011849184B9847B3
:10A79000184B23600322E3691A42FCD180239B02F9
:10A7A00063600722E3691A42FCD19F2323730022CE
:10A7B0006F3BE2542F3B2B710F4BEB80002070BDA1
:10A7C0009622120109490020094B98470D2040426A
:10A7D000F5E70800431E9841C0B2962212010349D2
:10A7E000034B9847AAE7C0460004004318EA00005C
:10A7F0009D9500000C000100FF010000F0B5DE4651
:10A8000057464E464546E0B583B081460E00046883
:10A810000B6898464D6803790193002816D02000F4
:10A82000431E9841C0B2AC2212013549354B9847BE
:10A83000E3695B073FD10323E0691840FCD123683B
:10A840009B073BD5020001239C4609E00020EAE774
:10A85000013501325BB2002B16DBB368834227D986
:10A86000237EDBB2042119422BD0A76A002DF0D041
:10A870002F7001990129EBD93F0A6F700235E8E783
:10A8800001218B46D84437E001235B426383813347
:10A890002376132040420322237E1342FCD003235D
:10A8A000237603B03CBC90469946A246AB46F0BD29
:10A8B0009342D5D8EFE704204042F2E7142040420B
:10A8C000EFE79042C6D867461F42C3D04F46FF8885
:10A8D000BA464746002F0FD03F78BA460199012962
:10A8E000CED947467F783F02BB46574659460F436D
:10A8F000BA4602218B46D84401305746A762A9E7E1
:10A9000018EA00009D95000010B5094B984206D04A
:10A91000084B9C466044800AC0B2002807D09E22A3
:10A92000520005490020054B98470120404210BDC8
:10A930000008004300E0FFBD48EA00009D950000CC
:10A9400070B506000C0008005B4B98470500F460EA
:10A950008D225A4901205A4B98472369DB0718D4A6
:10A96000032223691A42FCD123689B070BD5236875
:10A97000022293432360013223691A42FCD102224E
:10A9800023691A42FCD101232360032223691A425E
:10A99000FCD1012223691A42FCD1AB005B199B0058
:10A9A000484AD31859682160032223691A42FCD10E
:10A9B000AB005B199B00434AD3189A7AE2731B8958
:10A9C000E380012323730B330B40082B3FD0002B74
:10A9D0004FD1AB005B199B003A4AD3189B89A383E4
:10A9E000C02223691A42FCD10023E383C0222369D9
:10A9F0001A42FCD101236372334B9C4258D0AB0006
:10AA00005B199B002F4AD3185B785BB2002B1CDBD1
:10AA10001F221A400123934080222C498B50BFF300
:10AA20004F8FBFF36F8FAB005D19AD00254B5D19E4
:10AA30000123EB56002B08DB613A1A4001239340B7
:10AA40000A00C021490053501360002070BDAB00C4
:10AA50005B199B001B4AD318DB68E361C0222369A2
:10AA60001A42FCD100232362C02223691A42FCD17E
:10AA7000C0E7042BBED1AB005B199B00114AD31871
:10AA80001B7B2377C02223691A42FCD10023637702
:10AA9000C02223691A42FCD1AB005B199B00094A12
:10AAA000D318DB7AE376202223691A42FCD1A1E78E
:10AAB000074B1E60A3E7C04609A9000048EA000052
:10AAC0009D95000034EA00000020004200E100E013
:10AAD000F8040020C268136802210B43136001319F
:10AAE00013691942FCD17047C268032113691942E6
:10AAF000FCD110688007C00F70470020704700002D
:10AB000010B5C068084B984704001022FF3207496F
:10AB10000120074B9847A00000198000054B18182A
:10AB20004078054B984710BD09A9000048EA00008D
:10AB30009D95000034EA0000C599000010B5064B51
:10AB40001868C3689A7AD20700D410BD01229A729D
:10AB500003689847F9E7C046F804002000207047D2
:10AB600070B5837C0F221340C17C083A0A40012A49
:10AB70000BD05A011A498C4662441021D1715B01F5
:10AB8000184A94466344197070BD4A060FD5C27CBA
:10AB900040218A43C2745A018224E405A4466244D7
:10ABA00080258224640015550624FF341155C27C8B
:10ABB00008218A43C2740C495A018C180025A572D9
:10ABC000A5761300064CA44663446F24DC71054B44
:10ABD0009C4662441470807C8B6E9847D4E7C046D4
:10ABE0000001004108010041FC04002010B52022B2
:10ABF0008A40D2B2817C0F230B405B0105498C4611
:10AC000063441A708268807C034B1B6F0121984754
:10AC100010BDC04608010041FC04002010B5837C33
:10AC2000FF2B02D0C27C520600D410BDC27C40244F
:10AC3000A243C27482680248046F1800A047F4E778
:10AC4000FC04002030B583B0837C01AC2525257041
:10AC500025356570FF2B1BD0C47C640618D50F24E6
:10AC60002340002916D05C010E4DAC46644480257B
:10AC7000257101AC645C59010A4DAC466144CC714C
:10AC80005B0109498C4663441C701100074B9847CF
:10AC900003B030BD5C01034DAC4664444025657192
:10ACA000E7E7C04600010041080100411DAC00007B
:10ACB00070B582B0837C0F22134001AA0424147063
:10ACC000043454705D01002932D01A000832520158
:10ACD0008224E405145D6406640F0A015219304DA4
:10ACE000AA18957AEDB2022C2BD0AC0742D5C57CC0
:10ACF000947A0226B443947201AA545C5A01294EF4
:10AD0000B4466244D4715B01274A944663441C7084
:10AD100007232B40012B40D1C37C5B063DD5C37C70
:10AD2000DB09994239D000221900204B984734E0C2
:10AD30001A00083252018224E405145D07221440EF
:10AD4000CBE7EC07D1D5947A0125AC43947201AAE4
:10AD5000545C5A01134DAC466244D4715B01124AF3
:10AD6000944663441C704B1E9941C9B204220F4B98
:10AD7000984712E05A005218120109488218002020
:10AD8000907201AA515C5A01064884466244D1710E
:10AD90005B01054A94466344197002B070BDC04619
:10ADA000FC040020000100410801004145AC000006
:10ADB000F0B5C64600B50C4D2C0074342935FF356E
:10ADC0000A4B9846FF27002603212000C047A7749E
:10ADD000E6741434AC42F7D1602200210248044BDF
:10ADE000984704BC9046F0BDFC0400201DAC000058
:10ADF0005BDB0000F0B5C64600B504000E00837CA6
:10AE00000F251D40002900D1AAE06A015A4B9B186A
:10AE100058698004800C238A584A934200D19AE0F2
:10AE2000013B9AB2E37C07271F40002E05D06B013F
:10AE300053498C4663440221D971A368C118A160AB
:10AE4000636899424AD25B1A9BB2E27C920635D57E
:10AE5000228A101C92B29A4200D9181C83B29846DA
:10AE600023689C4661444246E068464B9847E16847
:10AE70006A01414B9B1819616A013F4B9B185A6943
:10AE800041468904890C920B92030A435A615A691C
:10AE90003D490A405A61002E07D1012F59D04A225C
:10AEA0006B013A498C4663441A706D01344B9C46E1
:10AEB000654480236B7104BC9046F0BD1A1C802051
:10AEC0008001834201D9324B1A8893B29846236895
:10AED00059186A01284B9B181961CDE7E37CDB0602
:10AEE0000FD5E37C10229343E3746A01224B9B1835
:10AEF0005A69920B92035A615A6923490A405A616E
:10AF0000C9E7012F0ED06D01224B9C4665444A23B0
:10AF10002B70218A024091420BD0002120001E4B51
:10AF20009847C8E76D011B4B9C4665444B232B702B
:10AF3000EFE7E37C40229343E374A07C0E4BDB6E8F
:10AF4000A16898470028B6D1E37C40221343E374FC
:10AF5000E3E74E22A4E7E77C07231F40074A66E7A2
:10AF6000038A064A0020934200D059E7E37C072772
:10AF70001F400020014A60E7FC040020FF0300009E
:10AF80000001004125DB0000FF3F00F00901004106
:10AF90005CEA0000080100411DAC0000F8B5DE4687
:10AFA00057464E464546E0B504008846837C0F254B
:10AFB0001D40002957D06A017D4B9B185A68120129
:10AFC000920C92465F68BF04BF0CBB46068A794B61
:10AFD0009E4200D1CDE0013EB6B25F463740E37CF1
:10AFE00007221A4091464346002B05D06B01724A56
:10AFF000944663440122DA71E37C9B060FD56368B3
:10B00000002B39D0A0681B1A9BB22268944660447A
:10B01000E1681A00BB4200D93A00684B9847636860
:10B02000002B29D04246002A42D0228ABA423FD978
:10B03000E37C10229343E374A3685B44A3604B4614
:10B04000012B00D187E06B015D4A944663442522C1
:10B050001A70002D02D1564BE2681A6000212000C0
:10B06000584B984759E0068A524B9E4200D18EE0D9
:10B0700000239B469A46AEE7E37CDB0600D47FE0E4
:10B08000E37C1022934320221343E374484A6B016C
:10B09000E1689950218AD3185A68890409094A48F5
:10B0A00002400A435A605A68920B92035A6022E0A7
:10B0B000A2685244A2609342C1D99B1A9BB2E17C20
:10B0C000890630D5228A111C92B29A4200D9191CE5
:10B0D0008BB2E0686A01364950506A0134498918D8
:10B0E0004A689B041B093848024013434B604B6875
:10B0F0009B0B9B034B604346002B08D125224B46FC
:10B10000012B2FD06B0131498C4663441A706D01BD
:10B11000294B9C46654440232B713CBC9046994684
:10B12000A246AB46F8BD218A8B420AD9802189010B
:10B130008B420DD8B34321688A1869011C480A5014
:10B14000CBE78B42F7D2E17C20200143E174F2E7A8
:10B1500080239B01EFE76B01194A944663442D223B
:10B160001A7076E76A01124B9B1800229A762D32EC
:10B17000C8E7BF05BF0DC37C07221A40914635E7DB
:10B180004346002B0CD1A3685344A36057E7C37C0C
:10B1900007221A409146002700239B469A462BE738
:10B1A000238ABB4200D943E7A3685344A36046E720
:10B1B000FC040020FF0300000001004125DB00002B
:10B1C000080100411DAC0000FF3F00F009010041F3
:10B1D00010B58223DB059B78DB0724D48221C905C7
:10B1E00003228B781342FCD18223DB051B789B075B
:10B1F00010D58222D205137802218B4313701100DF
:10B2000003228B781342FCD18221C90502228B785C
:10B210001342FCD101228223DB051A70190002328D
:10B220008B781342FCD18221C90501228B7813420D
:10B23000FCD11E4B1E4A1A665A669A66DA661A676F
:10B240001C4B98471C4B1B685A0B1F210A40980C3B
:10B2500001409B015B0F1F2A21D01F2921D0072B02
:10B2600021D092010A431B0313438222D205138586
:10B27000D37803210B43D370D3780C210B43D370C5
:10B2800004231370110003228B781342FCD1822314
:10B29000DB05064A5A6201221A81002010BD1A3AC3
:10B2A000DBE70239DBE7023BDBE7C046FC040020BA
:10B2B0005DAB0000B1AD00001C6080008223DB05A7
:10B2C0009B789B071ED18221C90503228B781342EC
:10B2D000FCD18223DB051B78DBB29A0709D402225A
:10B2E00013438222D2051370110003228B7813427C
:10B2F000FCD14022054B1A60054A8223DB051A83E4
:10B300000020704711204042FBE7C04600E100E00A
:10B310008D0200008222D205138901218B43138103
:10B320007047802318438223DB0598727047000022
:10B33000F0B50F24044043B29C46002C54D02500A5
:10B34000002B07DB032319402700022C50D91220C1
:10B35000404225E0A51CF5E76346002B21DB7B007E
:10B36000DB199B003B4C1B59002B66D17B00DF197E
:10B37000BF00384BFF58384BAE007419A4001C199D
:10B380008034276060337419A4001C19A284273408
:10B39000013121707519AD005B192633187000203A
:10B3A000F0BD7B00DB199B002A4CE3185B68002B87
:10B3B00006D17B00DF19BF00264BDF197F68DAE773
:10B3C0007B00DB199B00234CE3185B899342F0DA86
:10B3D00013204042E4E714204042E1E714204042B9
:10B3E000DEE713204042DBE7032319400025002756
:10B3F000AB005B199E00184B9B1986331B78FF2B03
:10B40000E9D10029A8D1002C04D06346002B01DB30
:10B410000234E4B2A3001B199B000F4CE4188634DD
:10B420002378FF2BDAD17B00DB199B00094C1B59D9
:10B43000002BD6D06346002BB3DB7B00DB199B00CF
:10B44000044CE3181B89934200DB8FE71320404232
:10B45000A6E7C04660EA0000FC040020F8B505003D
:10B460000F24044047B2002C10D02000002F02DB34
:10B47000022C02D9F8BDA01CFAE7060001308300B7
:10B4800018188000274B6033181802E025487430E4
:10B490000026B3009B199A00224B9B1886331B7819
:10B4A000FF2BE7D0F90F03221F4B9847B3009B19DE
:10B4B0009A001C4B9B188033DA7907231340012B29
:10B4C0001CD0002F21DB6D018223DB059C466544E7
:10B4D00080225200AB5C07218B43AB54114B60338D
:10B4E000B1008A1992009A182732002010708E1924
:10B4F000B6009B192633FF221A70BBE708356D0191
:10B5000000228223DB05EA54E8E764018223DB059D
:10B510009C46644480225200A35C70218B43A35458
:10B52000DCE7C046FC04002045AC0000F0B5C64690
:10B5300000B50F22024040B2002A00D195E013006E
:10B5400000280CDB1100083252018224E405155D4D
:10B55000EDB2022900D890E012204042E9E0931CAD
:10B56000F0E776322A4277D18222D20590464444CF
:10B57000112080225200A0549A00D2189500A04AAF
:10B5800060325219928C95039E48054080208000BD
:10B59000824200D9D0E00138FF38824200D917E159
:10B5A000802A00D904E1402A00D919E1202A00D9D3
:10B5B00006E1102A00D91BE1F83890428041404250
:10B5C000060735437D609504AD0CBCE070222A422D
:10B5D00045D18B489E00F218920082188032D279B1
:10B5E0005207520E15438222D205944664448022AB
:10B5F0005200A5546030F618B6008019808C85047E
:10B60000AD0C0132FF320723904214D8013AFF3AC1
:10B61000013B90420FD8013B80280CD8013B4028C9
:10B6200009D8013B202806D8013B102803D8F83A56
:10B630008242924153421B072B437B61802282232B
:10B640005B00E25449016E4B591800238B760020B1
:10B650006FE0122040426CE01420404269E0142068
:10B66000404266E01420404263E080235B00822277
:10B67000D205D55CEDB2002100239A00D2189400C7
:10B680005F4A1219863212789446FF2AE1D04C01A3
:10B690005B4A17199E00F618B60092198032D679C7
:10B6A00007223240012A00D15BE700288EDB6A07BF
:10B6B000D8D153489E00F218920082188032D27975
:10B6C0005207520F15438222D205944664448022C9
:10B6D0005200A5546030F618B6008019858CAB0373
:10B6E000484818400132FF320723954214D8013AE6
:10B6F000FF3A013B95420FD8013B802D0CD8013B0E
:10B70000402D09D8013B202D06D8013B102D03D830
:10B71000F83AAA42924153421B0703437B604022FE
:10B720000623FF33E2544901354B591800238B722D
:10B73000002004BC9046F0BDE020C00505437D60BC
:10B740009504AD0C07200007284378610625FF35D6
:10B750004026665582277F008020E0552848490111
:10B76000411800248C728C760F3461460C4099008D
:10B77000C918890041188031096863011950C0183F
:10B78000416892041409204A0A40224342604268F8
:10B79000920B920342608222D2059A18B021D155B1
:10B7A00056551A4A9446634410221A700020C0E786
:10B7B000A020C00505437D609504AD0C0520C2E7BF
:10B7C000C020800505437D609504AD0C0320BAE7D9
:10B7D000C020C00505437D609504AD0C0620B2E78E
:10B7E0008020C00505437D609504AD0C0420AAE7C8
:10B7F0008020800505437D609504AD0C0220A2E702
:10B80000FC04002000C0FF0FFF3F00F009010041D1
:10B81000F0B50F23034040B2C40F002B09D01A002B
:10B82000002804DB022B05D91220404219E09A1CA3
:10B83000F8E70022012915D0002936D093009B1883
:10B840009B00474AD218863212780F2313405B01BF
:10B85000444A9446634498791023A3401840431EF9
:10B860009841F0BD1025A540EDB23D4990008318E8
:10B870009B00CB1886331E780F2333405E01394F6F
:10B88000BC46664475712025A540ECB25B01364D7F
:10B89000AC4663441C70821892008A188032D379B7
:10B8A00008210B43D3710020DBE793009B1899001C
:10B8B0002B4B5B1886331B780F210B405D018221D7
:10B8C000C9058C466544832149006E5CF639A14068
:10B8D00000200E42C5D0C9B20530FF3029542021C6
:10B8E000A140C8B25B01214EB446634418700823DE
:10B8F000FF33EB5C0B4209D00823FF33E854073BCE
:10B90000FF3BA340DBB2822149006B5493009B189C
:10B910009900134B5B188033D97907230B40012B17
:10B920000BD093009A1892000D4B9B188033DA7954
:10B9300008218A43DA71002093E70633FF33E95C7C
:10B94000D63B0020194200D08BE793009A18920052
:10B95000034B9B188033DA7908218A43DA7180E738
:10B96000FC040020000100410901004108010041E0
:10B9700070B50D000F2318404401164B1B191968B0
:10B980005B689B049E0C02281BD8002D1CD08223D0
:10B99000DB059C46644480235B00E35C112B16D1DD
:10B9A0000823FF33E35C0020DB0600D470BD0822CF
:10B9B0002800094B984710220823FF33E254300037
:10B9C000F4E712204042F1E712204042EEE7132054
:10B9D0004042EBE7FC04002025DB0000F0B5DE462A
:10B9E00057464E464546E0B585B08046067A0F2359
:10B9F000334076B2002B00D1D3E01800002E39DBA3
:10BA00000400734A6032411C8D006D18AD00551959
:10BA10008100091889005218918C6E4A91422BD0EE
:10BA20004F1EBFB2424652681740022B00D9A4E015
:10BA300043461B686848834220D99818019067489C
:10BA400084460198604519D89B0717D1002E32DB38
:10BA5000914200D9AFE0002F30D0A3001B199A000B
:10BA60005B4B9B1880331B68002B00D18BE00023BD
:10BA700099460FE0981CC3E70F00D3E7A3001B19FA
:10BA80009A00534B9B1880331B68002B00D177E042
:10BA900001239946A3001B199A004D4B9B18803334
:10BAA000DB7902201B070CD505B03CBC90469946BB
:10BAB000A246AB46F0BD00239946EBE7002399462A
:10BAC000E8E703A8464B9847A3001B199A00404B90
:10BAD0009B188033DB795B0644D4A3001B199B00C1
